:100000000C9446000C9465000C9465000C946500FB
:100010000C9465000C9465000C9465000C946500CC
:100020000C9465000C9465000C9465000C946500BC
:100030000C9465000C9465000C9496000C9465007B
:100040000C9465000C9465000C9465000C9465009C
:100050000C9465000C9465000C9465000C9465008C
:100060000C9465000C9465000C9465000C9465007C
:100070000C9465000C9465000C9465000C9465006C
:100080000C9465000C9465000C94650011241FBE4F
:10009000CFEFD0E1DEBFCDBF11E0A0E0B1E0EAE3F9
:1000A000F2E000E00BBF02C007900D92A030B10754
:1000B000D9F711E0A0E0B1E001C01D92A430B10772
:1000C000E1F70E9408010C941B010C94000083E3EB
:1000D000809399001092980089B91092900096E050
:1000E00090939D0088E180939A00909395008AB93F
:1000F00008955D9BFECF8CB9089580919B0087FF8A
:10010000FCCF80919C0008951FBC8EB580618EBD90
:100110002FB7F89488EC90E097BD86BD2FBF8EB5C1
:10012000887F8EBD8EB581608EBD08951F920F921F
:100130000FB60F9211248F939F93AF93BF9380912B
:10014000000190910101A0910201B091030101967B
:10015000A11DB11D8093000190930101A0930201A4
:10016000B0930301BF91AF919F918F910F900FBEFC
:100170000F901F90189589B380FFFDCF20E030E0ED
:1001800010920001109201011092020110920301DD
:100190008091000190910101A0910201B0910301B1
:1001A000892BB1F3C901880F991FC89B03C09C011B
:1001B000216001C09C018FEF2038380709F781E0EA
:1001C00090E0089520E030E040E050E0109200011F
:1001D000109201011092020110920301809100011E
:1001E00090910101A0910201B0910301892BB1F31B
:1001F000C901880F991FC89B03C09C01216001C0E1
:100200009C014F5F5F4F4830510501F7C9010895C8
:100210000E9467000E9484001ABA8FEF8BBB87B7D9
:10022000846087BF8FB780688FBF0E94E2005D9BAC
:0A023000FECF8CB9FACFF894FFCF8F
:00000001FF
