:100000000C9446000C9465000C9465000C946500FB
:100010000C9465000C9465000C9465000C946500CC
:100020000C9465000C9465000C9465000C946500BC
:100030000C9465000C9465000C948C000C94650085
:100040000C9465000C9465000C9465000C9465009C
:100050000C9465000C9465000C9465000C9465008C
:100060000C9465000C9465000C9465000C9465007C
:100070000C9465000C9465000C9465000C9465006C
:100080000C9465000C9465000C94650011241FBE4F
:10009000CFEFD0E1DEBFCDBF11E0A0E0B1E0E0EBFB
:1000A000F2E000E00BBF02C007900D92A030B10754
:1000B000D9F711E0A0E0B1E001C01D92A432B10770
:1000C000E1F70E943D010C9456010C94000080EA77
:1000D0008093990081E08093980089B910929000F4
:1000E00096E090939D0088E180939A00909395000C
:1000F0008AB908951FBC8EB580618EBD2FB7F89464
:1001000088EC90E097BD86BD2FBF8EB5887F8EBDF1
:100110008EB582608EBD08951F920F920FB60F921A
:1001200011248F939F93AF93BF938091000190917F
:100130000101A0910201B09103010196A11DB11D21
:100140008093000190930101A0930201B0930301F9
:10015000BF91AF919F918F910F900FBE0F901F9005
:100160001895982F80919B0085FFFCCF90939C0061
:1001700008955D9BFECF8CB908955F9BFECF8CB137
:1001800090E00895582F40E820E030E0AFEF60E9BC
:1001900071E0842F852311F415BA01C0A5BB2F5F30
:1001A0003F4F80E29EE4FB013197F1F70197D9F7C9
:1001B0002830310511F04695ECCF81E090E00895AC
:1001C000582F40E820E030E0AFEF60E971E0842F85
:1001D000852311F412BA01C0A2BB2F5F3F4F80E10B
:1001E00097E2FB013197F1F70197D9F728303105F4
:1001F00011F04695ECCF81E090E00895582F40E84B
:1002000020E030E0E2E068EC70E0842F852311F418
:1002100012BA01C0E2BB2F5F3F4FCB010197F1F74C
:100220002830310511F04695F0CF81E090E0089537
:100230005D9BFECF82E48CB95D9BFECF8DE48CB9D3
:100240005D9BFECF82EE8CB95D9BFECF1CB85D9BA3
:10025000FECF1CB85D9BFECF1CB85D9BFECF1CB8CB
:10026000E4E0F1E05F9BFECF8CB1819381E0E4326A
:10027000F807C1F780E090E008950E9467000E94AF
:100280007A008FEF81BB97B7946097BF9FB7906854
:100290009FBF8ABB84BB9AEA5D9BFECF9CB98091CD
:1002A0009B0085FFFCCF90939C00F6CFF894FFCF86
:00000001FF
